{
  "_format": "hh-sol-artifact-1",
  "contractName": "CrowdfundingFactory",
  "sourceName": "contracts/CrowdFundingFactory.sol",
  "abi": [
    {
      "inputs": [],
      "stateMutability": "nonpayable",
      "type": "constructor"
    },
    {
      "inputs": [
        {
          "internalType": "uint256",
          "name": "",
          "type": "uint256"
        }
      ],
      "name": "campaigns",
      "outputs": [
        {
          "internalType": "address",
          "name": "campaignAddress",
          "type": "address"
        },
        {
          "internalType": "address",
          "name": "owner",
          "type": "address"
        },
        {
          "internalType": "string",
          "name": "name",
          "type": "string"
        },
        {
          "internalType": "uint256",
          "name": "creationTime",
          "type": "uint256"
        }
      ],
      "stateMutability": "view",
      "type": "function"
    },
    {
      "inputs": [
        {
          "internalType": "string",
          "name": "_name",
          "type": "string"
        },
        {
          "internalType": "string",
          "name": "_description",
          "type": "string"
        },
        {
          "internalType": "uint256",
          "name": "_goal",
          "type": "uint256"
        },
        {
          "internalType": "uint256",
          "name": "_durationInDays",
          "type": "uint256"
        }
      ],
      "name": "createCampaign",
      "outputs": [],
      "stateMutability": "nonpayable",
      "type": "function"
    },
    {
      "inputs": [],
      "name": "getAllCampaigns",
      "outputs": [
        {
          "components": [
            {
              "internalType": "address",
              "name": "campaignAddress",
              "type": "address"
            },
            {
              "internalType": "address",
              "name": "owner",
              "type": "address"
            },
            {
              "internalType": "string",
              "name": "name",
              "type": "string"
            },
            {
              "internalType": "uint256",
              "name": "creationTime",
              "type": "uint256"
            }
          ],
          "internalType": "struct CrowdfundingFactory.Campaign[]",
          "name": "",
          "type": "tuple[]"
        }
      ],
      "stateMutability": "view",
      "type": "function"
    },
    {
      "inputs": [
        {
          "internalType": "address",
          "name": "_user",
          "type": "address"
        }
      ],
      "name": "getUserCampaigns",
      "outputs": [
        {
          "components": [
            {
              "internalType": "address",
              "name": "campaignAddress",
              "type": "address"
            },
            {
              "internalType": "address",
              "name": "owner",
              "type": "address"
            },
            {
              "internalType": "string",
              "name": "name",
              "type": "string"
            },
            {
              "internalType": "uint256",
              "name": "creationTime",
              "type": "uint256"
            }
          ],
          "internalType": "struct CrowdfundingFactory.Campaign[]",
          "name": "",
          "type": "tuple[]"
        }
      ],
      "stateMutability": "view",
      "type": "function"
    },
    {
      "inputs": [],
      "name": "owner",
      "outputs": [
        {
          "internalType": "address",
          "name": "",
          "type": "address"
        }
      ],
      "stateMutability": "view",
      "type": "function"
    },
    {
      "inputs": [],
      "name": "paused",
      "outputs": [
        {
          "internalType": "bool",
          "name": "",
          "type": "bool"
        }
      ],
      "stateMutability": "view",
      "type": "function"
    },
    {
      "inputs": [],
      "name": "togglePause",
      "outputs": [],
      "stateMutability": "nonpayable",
      "type": "function"
    },
    {
      "inputs": [
        {
          "internalType": "address",
          "name": "",
          "type": "address"
        },
        {
          "internalType": "uint256",
          "name": "",
          "type": "uint256"
        }
      ],
      "name": "userCampaigns",
      "outputs": [
        {
          "internalType": "address",
          "name": "campaignAddress",
          "type": "address"
        },
        {
          "internalType": "address",
          "name": "owner",
          "type": "address"
        },
        {
          "internalType": "string",
          "name": "name",
          "type": "string"
        },
        {
          "internalType": "uint256",
          "name": "creationTime",
          "type": "uint256"
        }
      ],
      "stateMutability": "view",
      "type": "function"
    }
  ],
  "bytecode": "0x608060405234801561001057600080fd5b50600080546001600160a01b03191633179055612463806100326000396000f3fe60806040523480156200001157600080fd5b5060043610620000935760003560e01c80638da5cb5b11620000625780638da5cb5b1462000120578063a1e5084c146200014d578063a318f2691462000164578063c4ae3168146200017d57600080fd5b8063141961bc146200009857806319ac74bd14620000ca5780635c975abb14620000e157806386cdf6041462000107575b600080fd5b620000af620000a9366004620007a9565b62000187565b604051620000c194939291906200080b565b60405180910390f35b620000af620000db36600462000867565b62000262565b600054620000f690600160a01b900460ff1681565b6040519015158152602001620000c1565b62000111620002ba565b604051620000c1919062000894565b60005462000134906001600160a01b031681565b6040516001600160a01b039091168152602001620000c1565b620001116200015e36600462000932565b620003e2565b6200017b6200017536600462000a02565b62000520565b005b6200017b62000731565b600181815481106200019857600080fd5b60009182526020909120600490910201805460018201546002830180546001600160a01b039384169550929091169291620001d39062000a7d565b80601f0160208091040260200160405190810160405280929190818152602001828054620002019062000a7d565b8015620002525780601f10620002265761010080835404028352916020019162000252565b820191906000526020600020905b8154815290600101906020018083116200023457829003601f168201915b5050505050908060030154905084565b600260205281600052604060002081815481106200027f57600080fd5b60009182526020909120600490910201805460018201546002830180546001600160a01b039384169650919092169350620001d39062000a7d565b60606001805480602002602001604051908101604052809291908181526020016000905b82821015620003d9576000848152602090819020604080516080810182526004860290920180546001600160a01b0390811684526001820154169383019390935260028301805492939291840191620003379062000a7d565b80601f0160208091040260200160405190810160405280929190818152602001828054620003659062000a7d565b8015620003b65780601f106200038a57610100808354040283529160200191620003b6565b820191906000526020600020905b8154815290600101906020018083116200039857829003601f168201915b5050505050815260200160038201548152505081526020019060010190620002de565b50505050905090565b6001600160a01b0381166000908152600260209081526040808320805482518185028101850190935280835260609492939192909184015b8282101562000515576000848152602090819020604080516080810182526004860290920180546001600160a01b0390811684526001820154169383019390935260028301805492939291840191620004739062000a7d565b80601f0160208091040260200160405190810160405280929190818152602001828054620004a19062000a7d565b8015620004f25780601f10620004c657610100808354040283529160200191620004f2565b820191906000526020600020905b815481529060010190602001808311620004d457829003601f168201915b50505050508152602001600382015481525050815260200190600101906200041a565b505050509050919050565b600054600160a01b900460ff1615620005745760405162461bcd60e51b8152602060048201526011602482015270119858dd1bdc9e481a5cc81c185d5cd959607a1b60448201526064015b60405180910390fd5b6000338585858560405162000589906200079b565b6200059995949392919062000ab9565b604051809103906000f080158015620005b6573d6000803e3d6000fd5b50604080516080810182526001600160a01b0380841682523360208301908152928201898152426060840152600180548082018255600091909152835160049091027fb10e2d527612073b26eecdfd717e6a320cf44b4afac2b0732d9fcbe2b7fa0cf6810180549285166001600160a01b031993841617815595517fb10e2d527612073b26eecdfd717e6a320cf44b4afac2b0732d9fcbe2b7fa0cf782018054919095169216919091179092555193945084939192839290917fb10e2d527612073b26eecdfd717e6a320cf44b4afac2b0732d9fcbe2b7fa0cf801906200069e908262000b5b565b506060919091015160039091015533600090815260026020818152604080842080546001808201835591865294839020865160049096020180546001600160a01b03199081166001600160a01b0397881617825593870151918101805490941691909516179091558301518392918201906200071b908262000b5b565b5060608201518160030155505050505050505050565b6000546001600160a01b031633146200077a5760405162461bcd60e51b815260206004820152600a6024820152692737ba1037bbb732b91760b11b60448201526064016200056b565b6000805460ff60a01b198116600160a01b9182900460ff1615909102179055565b6118058062000c2983390190565b600060208284031215620007bc57600080fd5b5035919050565b6000815180845260005b81811015620007eb57602081850181015186830182015201620007cd565b506000602082860101526020601f19601f83011685010191505092915050565b6001600160a01b038581168252841660208201526080604082018190526000906200083990830185620007c3565b905082606083015295945050505050565b80356001600160a01b03811681146200086257600080fd5b919050565b600080604083850312156200087b57600080fd5b62000886836200084a565b946020939093013593505050565b60006020808301818452808551808352604092508286019150828160051b87010184880160005b838110156200092457888303603f19018552815180516001600160a01b039081168552888201511688850152868101516080888601819052906200090282870182620007c3565b60609384015196909301959095525094870194925090860190600101620008bb565b509098975050505050505050565b6000602082840312156200094557600080fd5b62000950826200084a565b9392505050565b634e487b7160e01b600052604160045260246000fd5b600082601f8301126200097f57600080fd5b813567ffffffffffffffff808211156200099d576200099d62000957565b604051601f8301601f19908116603f01168101908282118183101715620009c857620009c862000957565b81604052838152866020858801011115620009e257600080fd5b836020870160208301376000602085830101528094505050505092915050565b6000806000806080858703121562000a1957600080fd5b843567ffffffffffffffff8082111562000a3257600080fd5b62000a40888389016200096d565b9550602087013591508082111562000a5757600080fd5b5062000a66878288016200096d565b949794965050505060408301359260600135919050565b600181811c9082168062000a9257607f821691505b60208210810362000ab357634e487b7160e01b600052602260045260246000fd5b50919050565b6001600160a01b038616815260a06020820181905260009062000adf90830187620007c3565b828103604084015262000af38187620007c3565b60608401959095525050608001529392505050565b601f82111562000b5657600081815260208120601f850160051c8101602086101562000b315750805b601f850160051c820191505b8181101562000b525782815560010162000b3d565b5050505b505050565b815167ffffffffffffffff81111562000b785762000b7862000957565b62000b908162000b89845462000a7d565b8462000b08565b602080601f83116001811462000bc8576000841562000baf5750858301515b600019600386901b1c1916600185901b17855562000b52565b600085815260208120601f198616915b8281101562000bf95788860151825594840194600190910190840162000bd8565b508582101562000c185787850151600019600388901b60f8161c191681555b5050505050600190811b0190555056fe60806040523480156200001157600080fd5b506040516200180538038062001805833981016040819052620000349162000167565b600062000042858262000293565b50600162000051848262000293565b50600282905562000066816201518062000375565b62000072904262000395565b600355505060048054600161ff0160a01b0319166001600160a01b03949094169390931790925550620003ab9050565b634e487b7160e01b600052604160045260246000fd5b600082601f830112620000ca57600080fd5b81516001600160401b0380821115620000e757620000e7620000a2565b604051601f8301601f19908116603f01168101908282118183101715620001125762000112620000a2565b816040528381526020925086838588010111156200012f57600080fd5b600091505b8382101562000153578582018301518183018401529082019062000134565b600093810190920192909252949350505050565b600080600080600060a086880312156200018057600080fd5b85516001600160a01b03811681146200019857600080fd5b60208701519095506001600160401b0380821115620001b657600080fd5b620001c489838a01620000b8565b95506040880151915080821115620001db57600080fd5b50620001ea88828901620000b8565b606088015160809098015196999598509695949350505050565b600181811c908216806200021957607f821691505b6020821081036200023a57634e487b7160e01b600052602260045260246000fd5b50919050565b601f8211156200028e57600081815260208120601f850160051c81016020861015620002695750805b601f850160051c820191505b818110156200028a5782815560010162000275565b5050505b505050565b81516001600160401b03811115620002af57620002af620000a2565b620002c781620002c0845462000204565b8462000240565b602080601f831160018114620002ff5760008415620002e65750858301515b600019600386901b1c1916600185901b1785556200028a565b600085815260208120601f198616915b8281101562000330578886015182559484019460019091019084016200030f565b50858210156200034f5787850151600019600388901b60f8161c191681555b5050505050600190811b01905550565b634e487b7160e01b600052601160045260246000fd5b80820281158282048414176200038f576200038f6200035f565b92915050565b808201808211156200038f576200038f6200035f565b61144a80620003bb6000396000f3fe60806040526004361061011f5760003560e01c80637284e416116100a0578063b85dfb8011610064578063b85dfb8014610317578063c19d93fb14610344578063c4ae316814610365578063ca1d209d1461037a578063de1705701461038d57600080fd5b80637284e4161461026a5780637497211b1461027f5780637adba5271461029f5780638da5cb5b146102bf5780638ece7b91146102f757600080fd5b80633ccfd60b116100e75780633ccfd60b146101e657806340193883146101fb578063590e1ae3146102115780635c975abb146102265780636f9fb98a1461025757600080fd5b8063039af9eb1461012457806306fdde031461015c578063105505151461017e57806329dcb0cf146101a0578063389b7533146101c4575b600080fd5b34801561013057600080fd5b5061014461013f366004610ea8565b6103af565b60405161015393929190610f07565b60405180910390f35b34801561016857600080fd5b50610171610471565b6040516101539190610f2c565b34801561018a57600080fd5b506101936104ff565b6040516101539190610f5c565b3480156101ac57600080fd5b506101b660035481565b604051908152602001610153565b3480156101d057600080fd5b506101e46101df366004610ea8565b61055a565b005b3480156101f257600080fd5b506101e461061a565b34801561020757600080fd5b506101b660025481565b34801561021d57600080fd5b506101e461073e565b34801561023257600080fd5b5060045461024790600160a01b900460ff1681565b6040519015158152602001610153565b34801561026357600080fd5b50476101b6565b34801561027657600080fd5b50610171610844565b34801561028b57600080fd5b506101e461029a366004610ea8565b610851565b3480156102ab57600080fd5b506102476102ba366004610fa0565b610979565b3480156102cb57600080fd5b506004546102df906001600160a01b031681565b6040516001600160a01b039091168152602001610153565b34801561030357600080fd5b506101e4610312366004610fe0565b6109aa565b34801561032357600080fd5b506101b6610332366004611095565b60066020526000908152604090205481565b34801561035057600080fd5b5060045461019390600160a81b900460ff1681565b34801561037157600080fd5b506101e4610a9d565b6101e4610388366004610ea8565b610ae8565b34801561039957600080fd5b506103a2610cd7565b60405161015391906110b0565b600581815481106103bf57600080fd5b90600052602060002090600302016000915090508060000180546103e290611131565b80601f016020809104026020016040519081016040528092919081815260200182805461040e90611131565b801561045b5780601f106104305761010080835404028352916020019161045b565b820191906000526020600020905b81548152906001019060200180831161043e57829003601f168201915b5050505050908060010154908060020154905083565b6000805461047e90611131565b80601f01602080910402602001604051908101604052809291908181526020018280546104aa90611131565b80156104f75780601f106104cc576101008083540402835291602001916104f7565b820191906000526020600020905b8154815290600101906020018083116104da57829003601f168201915b505050505081565b600080600454600160a81b900460ff16600281111561052057610520610f46565b14801561052e575060035442115b15610549576002544710156105435750600290565b50600190565b50600454600160a81b900460ff1690565b6004546001600160a01b0316331461058d5760405162461bcd60e51b81526004016105849061116b565b60405180910390fd5b6000600454600160a81b900460ff1660028111156105ad576105ad610f46565b146105f45760405162461bcd60e51b815260206004820152601760248201527621b0b6b830b4b3b71034b9903737ba1030b1ba34bb329760491b6044820152606401610584565b61060181620151806111a8565b6003600082825461061291906111bf565b909155505050565b6004546001600160a01b031633146106445760405162461bcd60e51b81526004016105849061116b565b61064c610ddc565b6001600454600160a81b900460ff16600281111561066c5761066c610f46565b146106b95760405162461bcd60e51b815260206004820152601860248201527f43616d706169676e206e6f74207375636365737366756c2e00000000000000006044820152606401610584565b47806107005760405162461bcd60e51b81526020600482015260166024820152754e6f2062616c616e636520746f20776974686472617760501b6044820152606401610584565b6004546040516001600160a01b039091169082156108fc029083906000818181858888f1935050505015801561073a573d6000803e3d6000fd5b5050565b610746610ddc565b6002600454600160a81b900460ff16600281111561076657610766610f46565b146107ac5760405162461bcd60e51b81526020600482015260166024820152752932b33ab73239903737ba1030bb30b4b630b136329760511b6044820152606401610584565b33600090815260066020526040902054806108095760405162461bcd60e51b815260206004820152601960248201527f4e6f20636f6e747269627574696f6e20746f20726566756e64000000000000006044820152606401610584565b336000818152600660205260408082208290555183156108fc0291849190818181858888f1935050505015801561073a573d6000803e3d6000fd5b6001805461047e90611131565b6004546001600160a01b0316331461087b5760405162461bcd60e51b81526004016105849061116b565b60055481106108c35760405162461bcd60e51b81526020600482015260146024820152732a34b2b9103237b2b9903737ba1032bc34b9ba1760611b6044820152606401610584565b600580546108d3906001906111d2565b815481106108e3576108e36111e5565b906000526020600020906003020160058281548110610904576109046111e5565b600091825260209091206003909102018061091f838261124a565b506001828101549082015560029182015491015560058054806109445761094461132b565b600082815260208120600019909201916003830201906109648282610e5a565b50600060018201819055600290910155905550565b6001600160a01b038216600090815260066020908152604080832084845260010190915290205460ff165b92915050565b6004546001600160a01b031633146109d45760405162461bcd60e51b81526004016105849061116b565b60008111610a245760405162461bcd60e51b815260206004820152601e60248201527f416d6f756e74206d7573742062652067726561746572207468616e20302e00006044820152606401610584565b60408051606081018252838152602081018390526000918101829052600580546001810182559252805190916003027f036b6384b5eca791c62761152d0c79bb0604c104a5fb6f4eb0703f3154bb3db001908190610a829082611341565b50602082015181600101556040820151816002015550505050565b6004546001600160a01b03163314610ac75760405162461bcd60e51b81526004016105849061116b565b6004805460ff60a01b198116600160a01b9182900460ff1615909102179055565b6000600454600160a81b900460ff166002811115610b0857610b08610f46565b14610b4f5760405162461bcd60e51b815260206004820152601760248201527621b0b6b830b4b3b71034b9903737ba1030b1ba34bb329760491b6044820152606401610584565b600454600160a01b900460ff1615610b9f5760405162461bcd60e51b815260206004820152601360248201527221b7b73a3930b1ba1034b9903830bab9b2b21760691b6044820152606401610584565b6005548110610be05760405162461bcd60e51b815260206004820152600d60248201526c24b73b30b634b2103a34b2b91760991b6044820152606401610584565b60058181548110610bf357610bf36111e5565b9060005260206000209060030201600101543414610c475760405162461bcd60e51b815260206004820152601160248201527024b731b7b93932b1ba1030b6b7bab73a1760791b6044820152606401610584565b60058181548110610c5a57610c5a6111e5565b600091825260208220600260039092020101805491610c78836113fb565b90915550503360009081526006602052604081208054349290610c9c9084906111bf565b90915550503360009081526006602090815260408083208484526001908101909252909120805460ff19169091179055610cd4610ddc565b50565b60606005805480602002602001604051908101604052809291908181526020016000905b82821015610dd35783829060005260206000209060030201604051806060016040529081600082018054610d2e90611131565b80601f0160208091040260200160405190810160405280929190818152602001828054610d5a90611131565b8015610da75780601f10610d7c57610100808354040283529160200191610da7565b820191906000526020600020905b815481529060010190602001808311610d8a57829003601f168201915b505050505081526020016001820154815260200160028201548152505081526020019060010190610cfb565b50505050905090565b6000600454600160a81b900460ff166002811115610dfc57610dfc610f46565b03610e58576003544210610e4757600254471015610e1b576002610e1e565b60015b6004805460ff60a81b1916600160a81b836002811115610e4057610e40610f46565b0217905550565b600254471015610e1b576000610e1e565b565b508054610e6690611131565b6000825580601f10610e76575050565b601f016020900490600052602060002090810190610cd491905b80821115610ea45760008155600101610e90565b5090565b600060208284031215610eba57600080fd5b5035919050565b6000815180845260005b81811015610ee757602081850181015186830182015201610ecb565b506000602082860101526020601f19601f83011685010191505092915050565b606081526000610f1a6060830186610ec1565b60208301949094525060400152919050565b602081526000610f3f6020830184610ec1565b9392505050565b634e487b7160e01b600052602160045260246000fd5b6020810160038310610f7e57634e487b7160e01b600052602160045260246000fd5b91905290565b80356001600160a01b0381168114610f9b57600080fd5b919050565b60008060408385031215610fb357600080fd5b610fbc83610f84565b946020939093013593505050565b634e487b7160e01b600052604160045260246000fd5b60008060408385031215610ff357600080fd5b823567ffffffffffffffff8082111561100b57600080fd5b818501915085601f83011261101f57600080fd5b81358181111561103157611031610fca565b604051601f8201601f19908116603f0116810190838211818310171561105957611059610fca565b8160405282815288602084870101111561107257600080fd5b826020860160208301376000602093820184015298969091013596505050505050565b6000602082840312156110a757600080fd5b610f3f82610f84565b60006020808301818452808551808352604092508286019150828160051b87010184880160005b8381101561112357603f198984030185528151606081518186526110fd82870182610ec1565b838b0151878c0152928901519589019590955250948701949250908601906001016110d7565b509098975050505050505050565b600181811c9082168061114557607f821691505b60208210810361116557634e487b7160e01b600052602260045260246000fd5b50919050565b6020808252600d908201526c2737ba103a34329037bbb732b960991b604082015260600190565b634e487b7160e01b600052601160045260246000fd5b80820281158282048414176109a4576109a4611192565b808201808211156109a4576109a4611192565b818103818111156109a4576109a4611192565b634e487b7160e01b600052603260045260246000fd5b601f82111561124557600081815260208120601f850160051c810160208610156112225750805b601f850160051c820191505b818110156112415782815560010161122e565b5050505b505050565b818103611255575050565b61125f8254611131565b67ffffffffffffffff81111561127757611277610fca565b61128b816112858454611131565b846111fb565b6000601f8211600181146112bf57600083156112a75750848201545b600019600385901b1c1916600184901b178455611324565b600085815260209020601f19841690600086815260209020845b838110156112f957828601548255600195860195909101906020016112d9565b50858310156113175781850154600019600388901b60f8161c191681555b50505060018360011b0184555b5050505050565b634e487b7160e01b600052603160045260246000fd5b815167ffffffffffffffff81111561135b5761135b610fca565b611369816112858454611131565b602080601f83116001811461139e57600084156113865750858301515b600019600386901b1c1916600185901b178555611241565b600085815260208120601f198616915b828110156113cd578886015182559484019460019091019084016113ae565b50858210156113eb5787850151600019600388901b60f8161c191681555b5050505050600190811b01905550565b60006001820161140d5761140d611192565b506001019056fea264697066735822122070793ce5f87b999a90bfd66044b292374b6ff7973513e1a1a669d3780765c01764736f6c63430008110033a2646970667358221220c3bbf76162624a58dcaa7659863698f78def7ba0f0ee4e248d9b34208fce8fd164736f6c63430008110033",
  "linkReferences": {},
  "deployedLinkReferences": {}
}